:020000041000EA
:1000000000B5324B212058609868022188439860DF
:10001000D860186158612E4B002199600421596104
:100020000121F02299502B49196001219960352056
:1000300000F044F80222904214D00621196600F024
:1000400034F8196E01211966002018661A6600F04E
:100050002CF8196E196E196E052000F02FF8012189
:100060000842F9D1002199601B49196000215960AB
:100070001A491B48016001219960EB211966A021F2
:10008000196600F012F800219960164914480160C1
:100090000121996001BC002800D000471248134993
:1000A000086003C880F30888084703B5996A0420EC
:1000B0000142FBD001200142F8D103BD02B5186610
:1000C0001866FFF7F2FF186E186E02BD00000240BE
:1000D000000000180000070000035F00212200005C
:1000E000F4000018222000A00001001008ED00E03C
:1000F000000000000000000000000000070B8FD58A
:10010000003C00201D6C0010AFDF0010D96B001008
:1001100000000000000000000000000000000000DF
:100120000000000000000000000000003D6D001015
:100130000000000000000000C56C0010818B001062
:10014000716E0010716E0010716E0010716E0010F3
:10015000716E0010716E0010716E0010716E0010E3
:10016000716E0010716E0010716E0010716E0010D3
:10017000716E0010716E0010716E0010716E0010C3
:10018000716E0010716E0010716E0010716E0010B3
:10019000716E0010716E0010716E0010716E0010A3
:0801A000716E0010716E001079
:1001A80002B4714649084900095649008E4402BC08
:1001B8007047C04602B4714649084900095C4900C5
:1001C8008E4402BC7047C04603B4714649084000DB
:1001D8004900095E49008E4403BC704703B4714668
:1001E800490840004900095A49008E4403BC704739
:1001F800002934D00123002210B488422CD30124D2
:100208002407A14204D2814202D209011B01F8E766
:10021800E400A14204D2814202D249005B00F8E71F
:10022800884201D3401A1A434C08A04202D3001B4B
:100238005C0822438C08A04202D3001B9C0822437E
:10024800CC08A04202D3001BDC082243002803D0BC
:100258001B0901D00909E3E7100010BC704701B57C
:10026800002000F05FF802BD0029F8D003B5FFF7C1
:10027800C1FF0EBC4243891A1847C046002941D025
:1002880010B404004C40A44601230022002900D5E4
:100298004942002800D5404288422CD30124240733
:1002A800A14204D2814202D209011B01F8E7E4000D
:1002B800A14204D2814202D249005B00F8E7884299
:1002C80001D3401A1A434C08A04202D3001B5C0811
:1002D80022438C08A04202D3001B9C082243CC086E
:1002E800A04202D3001BDC082243002803D01B09CC
:1002F80001D00909E3E710006446002C00D540420C
:1003080010BC704701B5002000F00CF802BDC046D3
:100318000029F7D003B5FFF7B3FF0EBC4243891A93
:100328001847C0467047C046D0400B00D1409C4695
:10033800203AD340184352426346934018437047CB
:10034800D0400B001141203A03D49C461341184376
:1003580063465242934018437047C0469140030099
:1003680090409C46203A9340194352426346D340FA
:10037800194370471C2101231B04984201D3000C28
:1003880010391B0A984201D3000A08391B09984200
:1003980001D30009043902A2105C40187047C04616
:1003A8000403020201010101000000000000000036
:1003B800414208401C2101231B04984201D3000C30
:1003C80010391B0A984201D3000A08391B099842C0
:1003D80001D30009043902A2105C401A7047C046D4
:1003E8001B1C1D1D1E1E1E1E1F1F1F1F1F1F1F1F24
:1003F800002B15D1002A13D1002906DB01DC0028C7
:1004080006D00020C043410802E0802109060020F0
:1004180007B4024801A14018029003BD09FFFFFF7D
:1004280003B4684601B5029802F06AF8019B9E463B
:1004380002B00CBC7047C046002B11D1002A0FD166
:10044800002900D1002802D00021C943080007B4C0
:10045800024802A14018029003BDC046C9FEFFFF32
:1004680003B4684601B5029801F0DBFF019B9E4684
:1004780002B00CBC7047C04670B500220B4B04009C
:100488000D0001F05FFE00280BD0084B0022200071
:10049800290001F051FA01F063FD80231B06C01802
:1004A80070BD2000290001F05BFDF9E70000E04184
:1004B80070B50600080001F0AFFD0022064B01F000
:1004C80011F80D000400300001F0A6FD2B002200F9
:1004D80000F096FA70BDC0460000F0414A02F8B537
:1004E80043024400C50F500A84464800240E000EFB
:1004F8005F0AC90F9B099209261A8D4200D09EE017
:10050800002E42DD8021C90400281ED1002A0AD00D
:10051800661E012C05D19B1801340B4246D1013CC3
:1005280001E0FF2C14D15A0704D00F221A40042AE4
:1005380000D004335A0100D42EE101340026FF2CE8
:1005480019D09D4EDB081E4015E0FF2CEBD00A4366
:100558001B2E01DD0133E6E72020801B11008240BD
:10056800F140501E82410A439B185A01DBD50134E1
:100578000026FF2C1AD1FF23E005DB057602760A58
:1005880018403043ED072843F8BD002E2ED08026B2
:10059800011BF604002C14D1002B00D1F3E04C1EF3
:1005A80001290AD19B1802243342B8D00122834979
:1005B8001A405B080B401343B5E7FF2906D1130027
:1005C800AEE0FF2800D1E0E00C0033431B2C02DD35
:1005D800531C0400A7E719002026E140341BA34060
:1005E8005C1EA3410B4304009B18BEE7FE20611C60
:1005F80001421ED1002C0DD1002B00D1C7E0002AEA
:1006080000D190E79B185A0100D48CE76C4A13403C
:100618000C0088E7002BD2D0FF24002A00D182E703
:100628008023DB039F4202D39C4500D26746FB0030
:1006380076E00C00FF299ED09B185B0873E7002E1C
:1006480025DD00281CD1002A00D16CE7661E012C8C
:1006580006D19B1A5A0100D465E79B019E0975E0F3
:10066800FF2C00D15FE701211B2E07DC2020801B17
:1006780011008240F140501E824111435B1AE9E7A4
:10068800FF2C00D14FE78021C9040A43EBE7002E75
:1006980025D0051B002C0DD1002B08D06E1E012D76
:1006A80003D10D00D31A0134D4E7FF2D08D113006C
:1006B8002C0021E0FF286CD080242E00E404234382
:1006C80001241B2E07DC2025AD1B1C00AB40F44089
:1006D8005D1EAB411C43131B0D000400BAE7FE2648
:1006E800601C30422DD1002C14D1002B06D12500DE
:1006F8002600131E00D13EE70D0014E7002A00D1A2
:1007080011E79E1AD31A7001F6D4331E00D00AE7F7
:10071800350030E7002B05D1002A49D013000D0021
:10072800FF2400E7FF24002A00D1FCE68023DB0336
:100738009F4200D27BE79C4500D378E767460D00CF
:1007480075E79E1A700115D50D00D61A3000FFF70F
:1007580011FE330005388340844210DC2022001B40
:100768000130121A19009340C1405A1E93410024C7
:100778000B43D8E6002EE9D135003400FBE6104AD9
:10078800241A1340CFE6130042E7130021E71300B1
:10079800C9E613000400AFE7DE08FF2C00D0EAE644
:1007A800002E00D1E7E68023DB03FF241E43E2E6A8
:1007B80080261500F603F6E7FFFF7F1FFFFFFF7D8A
:1007C800FFFFFFFBF0B5C30F85B0440245000F1CC7
:1007D800640A2D0E039302930AD0FF2D3BD0802389
:1007E800E400DB041C4300237F3D019500930EE0E9
:1007F800012301940093002C09D02000FFF7BAFDD3
:10080800431F9C4076235B421B1A019300957D028F
:100818007E006D0A360EFF0F002E23D0FF2E2ED03D
:100828008023ED00DB041D4333007F3B0022019849
:100838000399C31A009879408000104301380E28A4
:1008480023D8FFF7B7FC4D9973999299734D4D9240
:10085800736161615300022301950093002CD6D087
:100868000133C3E72B000122002DE0D02800FFF759
:1008780081FD431F9D4076235B421B1AD6E7330058
:100888000222002DD3D00132D1E764016D01AC42C0
:1008980028D31A200122641B012627005200640075
:1008A800002F01DBA54201D8641B32430138002820
:1008B800F3D1601E8441144318007F30002838DDCE
:1008C800620704D00F222240042A00D004342201F7
:1008D80003D5803318002B4A1440E508FE281DDD97
:1008E80000250FE01B200022013BD5E78023DB0316
:1008F8001C4203D01D4201D12C0002978025029989
:10090800ED032543FF2009E00399009A022AE7D066
:10091800032A2FD000252800012ACDD16D026D0AA7
:10092800C0052843C907084305B0F0BD2C003900AD
:10093800ECE701220025121A28001B2AEEDC9E3360
:1009480025009C40D540631E9C4125436B0704D07D
:100958000F232B40042B00D0043580232800DB0410
:1009680018401D420BD1ED08D8E780240023E4038A
:100978000293C3E70291C1E700252800CEE70025CE
:100988000120CBE7FFFFFFF7002370B50400984272
:1009980009D0FFF7EFFC9E231B1A962B08DC0828CA
:1009A80029D0083884406402D805640A204370BD01
:1009B800992B1BDD020021001B3291400A00511EB9
:1009C8008A410521091ACC40144322000B4D2A40C4
:1009D800610704D00F212140042900D004325101BD
:1009E80002D59F232A401B1AD408DCE7421F05289A
:1009F800EBD09440E9E79623D5E7C046FFFFFFFB1D
:100A0800F0B587B004920593CB0F0193059B0D03B6
:100A18004C006D0A410F5F0029431D037B0D0293B3
:100A2800059B6D0ADB0F0393049B049A5B0F2B4312
:100A3800019E029D039F640DC000D200651BBE424B
:100A480000D02CE1BB4EB446002D00DC70E0029EC5
:100A5800002E1ED11E00164300D19BE26E1E012DF2
:100A680013D1821882428041C918404209180124D2
:100A780010000B0200D472E00224AF4B42080B4076
:100A8800012101400A43D80706E165451CD1A94C5C
:100A980065E0644563D0382D47DC8026360433434F
:100AA8002E001F2E2FDC20251F00AD1BAF40029506
:100AB8003D001700F7402F43029DF340AA40551E02
:100AC800AA411D00174303E00127029D382EE8DDE7
:100AD8003F188742804169184042091838000B02C4
:100AE8003DD5002501342F006445C6D1934B24051C
:100AF8001C403B031B0B1C43019B2800DB071C43CA
:100B0800210007B0F0BD35001F00203DEF403D003B
:100B18000027202E03D04037BF1BBB401F001743C0
:100B28007B1E9F412F430025D2E700250127CFE7F1
:100B3800002D6FD0029D2E1B002C30D10D000543D7
:100B480000D121E2751E012E24D1801890429241D5
:100B5800C9185242891801340B0200D58CE74307A3
:100B680009D00F230340042B05D0031D8342804185
:100B78004042091818006F4B0A0200D410E2002501
:100B880001342F009C42B1D06B4BC0080B405D076D
:100B98000543F2E166451DD11900100077E7029C74
:100BA8006445F9D0382E32DC8024350024042143F2
:100BB8001F2D1ADC20240E00671BBE4034000600DF
:100BC800B840EE4034430600E940701E8641264393
:100BD8000C0002E00126382DEADDB018904292415F
:100BE800E4185242A118029C79E72C000E00203C20
:100BF800E64034000026202D03D04036761BB14055
:100C08000E000643711E8E4126430024E5E70024AA
:100C18000126E2E74A4F661C3E4230D10D000543EB
:100C2800002C12D1002D00D1B1E11D00154396D042
:100C3800821882428041C9184042091810000B02EC
:100C48008DD53D4B1940340089E7002DA4D01D00F7
:100C58006446154383D080254C07C008C9082D0376
:100C68002043294206D0DC082C4203D12100D008B9
:100C78005B071843CB00410F1943C00007E7340056
:100C88002F00664500D131E7821882428041CB1897
:100C980040421B18D8075208104359085FE7002D37
:100CA80065DD029E002E25D11E00164300D171E19C
:100CB8006E1E012D0ED1821A90428041C91A4042FF
:100CC800091A012410000B0200D448E74902060063
:100CD8004D0A07E1174FBD4200D1D8E60125029F12
:100CE800382E11DD451BA8428041C91B4042091A14
:100CF8002800E8E70F4EB44200D130E7382D33DC46
:100D08008026360433432E001F2E1BDC2027BD1BF4
:100D180002951D00029FF340BD40AC461500674692
:100D2800F5403D43029FBA40571EBA411F00154384
:100D3800D8E7C046FF070000FFFF7FFF0000F07FF5
:100D4800FE07000035001F00203DEF403D00002752
:100D5800202E03D04037BE1BB3401F0017437B1E15
:100D68009F413D430027BDE700270125BAE7002D35
:100D780059D0029D2E1B002C16D10D0005430FD013
:100D8800751E012E09D1101A82429241591A039BED
:100D98005242891A0193013495E78E4FBE4221D100
:100DA80019001000340050E08A4C029DA54200D181
:100DB800F2E0382E34DC80243500240421431F2D32
:100DC8001DDC20260C00761BB440A4460400B0406D
:100DD800EC406746461EB041E9403C4304432600C8
:100DE8000C0002E00126382DE9DD901B8242924179
:100DF8001C1B039B5242A11A0193029C63E72C001F
:100E08000E00203CE6400024202D03D04034641B13
:100E1800A1400C000443611E8C4126430024E4E7F2
:100E280000240126E1E76C4E651C35424AD10D00CD
:100E38001F0005431743002C23D1002D08D13D1E68
:100E4800019700D152E619001000039B019386E632
:100E5800002F00D183E6861AB042BF41CD1A7F42E7
:100E6800ED1B2F0206D5101A82429241591A52429E
:100E7800891AEAE737002F4300D1A5E0290030009E
:100E88006DE6002D07D1002F00D194E01900039BD7
:100E980010000193FBE5002F00D1F8E580254C07F1
:100EA800C008C9082D032043294200D1E2E6DC0826
:100EB8002C4200D0DEE65B07D0081843039B2100D4
:100EC8000193D7E6861AB042BF41CD1A7F42ED1B87
:100ED8002F0228D5161AB24292415B1A52429D1A25
:100EE800039B0193002D25D02800FFF743FA030048
:100EF800083B20223100D21A9D40D14029433500B9
:100F08009D409C423BDC1A1B0132202308009B1A9F
:100F18002C009D409840D4406B1E9D41D1402043F9
:100F2800284300241BE637002F43DBD13D003C005B
:100F38000197DBE53000FFF71DFA030018331F2B7C
:100F4800D7DD3100083881409C4212DC1B1B5A1C3B
:100F58001F2ADADD0C001F3BDC402800202A03D0C2
:100F680040239B1A99400800431E984100212043C2
:100F7800D7E7E41A194B0B405D07DF08B6E5E41A1A
:100F8800164B28001940EAE5190010005BE6190025
:100F98001000E4E52C00E2E519001000029C54E77B
:100FA8004A07C70817433D00C9089C420FD10D43A3
:100FB80004D12F009AE58021019709033D0080277D
:100FC8003F03044C0F4391E53D0001978EE50F0068
:100FD8008CE5C046FF070000FE070000FFFF7FFF0B
:100FE800F0B589B0009201930D03CA0F4B000600BB
:100FF80004002D0B5B0D0692059244D05B4A934288
:101008006AD0420FED001543802212042A4302924F
:10101800574AC4009F180026019B019A1D03D20F4E
:101028005B0000982D0B5B0D079265D04F4A9342E9
:1010380000D188E0ED004E49420F2A4380255B1815
:101048009C462D041543C2000021079B0698584072
:1010580063460490B0000843FB1A013803930E2836
:1010680000D989E0FFF7BAF87E002802D4012802E7
:101078001E022802D4017E007E001E02D401C70190
:10108800C701C701B5012B00034302932CD0002DE3
:1010980015D02800FFF76EF9010003000B391D2257
:1010A800521A31001800D140083885400A002A43F6
:1010B8003500854002922F4F2C00FF1AABE7FFF74F
:1010C80059F901000300153120331C29E7DD3200EE
:1010D800083882400292EEE702002A43029207D0C3
:1010E8001F000326029597E7029C0126270093E735
:1010F8001F000226029C8FE7009A2A432AD0002D5F
:1011080015D02800FFF736F9010002000B391D231E
:1011180010005B1A009908388540D9402943009D82
:101128008540144B9B1A9C462A000D008CE7FFF75C
:1011380021F901000200153120321C29E7DD009950
:1011480008388140EDE7009A2A4307D002009C4600
:1011580003217AE715009446012176E715009C469D
:10116800022172E700231C00004A22E1FF07000069
:1011780001FCFFFF0DFCFFFF029B9D4204D300D042
:1011880022E1A24200D91FE1029BE607D9076308C2
:1011980019430C00029B5B08029313022D02170EE1
:1011A80000932B0C2F4307930799BBB20298059322
:1011B800FFF75AF8BBB243430A04210C0500114358
:1011C8008B4207D9C919013D8F4203D88B4201D9F7
:1011D800851EC919C81A0799FFF746F8BAB24243DB
:1011E8000904A4B203000C43A24207D9E419013B45
:1011F800A74203D8A24201D9831EE4192D041D4336
:10120800A41A009B009A1B0C12040593120CABB293
:1012180006925A4306980292059A290C484353436A
:101228005143029A1B18120C94466344984202D9FF
:10123800802252028918029A180C12041B04120CFC
:1012480040189A18844203D302951ED196421CD2A4
:101258006B1E0293009BF6189E429B415B42DB1972
:10126800E418A74203D310D1009BB3420DD8A04283
:1012780002D80AD1B24208D9AB1E0293009BF618D5
:101288009E429B415B42DB19E418B51AAE42B64157
:10129800201A7642801B874200D1BEE00799FEF7EC
:1012A800E3FFBBB243430A04290C040011438B42F9
:1012B80007D9C919013C8F4203D88B4201D9841E32
:1012C800C919C81A0799FEF7CFFFBBB243430904EF
:1012D800ADB202000D43AB4207D9ED19013AAF4256
:1012E80003D8AB4201D9821EED19ED1A2304059EDD
:1012F8001343069906981C0C9AB2514360437243F3
:10130800744312180E0CB218904202D98020400281
:101318002418100C09041204090C001951188542EC
:1013280004D31C00854219D1002919D07D195C1EEF
:10133800BD420ED3854203D310D1009A8A420AD205
:101348009C1E009B5A009A429B415B42DB19ED1898
:101358000092854202D1009B994201D001231C438F
:10136800039B5B4A9A18002A5ADD63070BD00F23A8
:101378002340042B07D0231DA342A44102996442B1
:1013880009191C000291029BDB0108D5514B029AF6
:101398001A408023DB009C460292039A62444E4B1B
:1013A8009A4200DD8CE0029BE4085B071C43029B29
:1013B800DB081B0312051B0B1343049A2000D207FA
:1013C8001343190009B0F0BD039B0026013B0393AA
:1013D800E3E6802302991B03194205D01D4203D17D
:1013E8001400079B029505938023029A1B0313435D
:1013F800059A0492B8E63100069B049302295FD04F
:10140800032956D00129ABD1002423002200D0E7BC
:10141800079B140002950493F0E7012464429FE7B8
:101428000121891A3829EFDC1F2926DC2B4A039B66
:101438009446634420009C40029AC8409A40230086
:101448000243581E83411A43029B1400CB40620793
:1014580009D00F222240042A05D0221DA242A4410D
:1014680064421B19140080211A0009040A400B4227
:1014780029D1E1085C070C439AE71F235B429B1ABA
:10148800029ADA400023202906D01549039B8C468E
:101498000299634499400B001C43631E9C4100233E
:1014A8001443D4E700231C00059380231B030293F5
:1014B8009AE7049B059397E700231C001A0078E736
:1014C8000024230050E6002301221C0071E7C046D7
:1014D800FF030000FFFFFFFEFE0700001E040000E0
:1014E8003E040000F0B58BB0009201930D034B0051
:1014F800CA0F06002D0B5B0D059200D114E1CF4AEF
:10150800934200D138E1ED00420F2A4380252D0493
:101518001543CB4AC4009B18039300230293019BF5
:1015280000981E035A00DB0F360B520D049300D1AE
:1015380031E1C24B9A4200D153E1430FF6003343E5
:101548008026BF4936041E43C3005018002205995F
:10155800049F794000910399411806910131039144
:101568000299880010430A2800DD73E1022800DD93
:1015780046E10138012800D855E1190C9BB20291C7
:101588001900220CA4B2514320008C46029F0299F4
:1015980058435143674305916744010CC9190490A6
:1015A8008C4505D9802040028446059F67440597ED
:1015B800080C84466846008A090409180991310C08
:1015C800B6B2049130002100049F50437C4371431C
:1015D8007A4324180F0C3C19A04202D980204002FB
:1015E8001218200C8218240489B2079262180892F3
:1015F800089962468C46290CADB22800029F5843D0
:101608006F434B4362449446029CFF18020CD21964
:101618004C43934202D980235B02E418130C1B1934
:1016280002932B0080B212041218049873434543A6
:101638004E434143A8191D0C2D18AE4202D98020F3
:1016480040020918059C6046A446089C6044A042D4
:10165800BF418018904292412E049BB2F618079B16
:101668007F42F61853420493029BF4199C46A44403
:101678006346049ABC42A4419B18079A6442964266
:10168800B641029A764234432D0C64199445AD4113
:10169800049A6D4293429241524215436419099A41
:1016A8006418410211434A1E9141C00DDE0D6402C7
:1016B80001435B0226430B43E40100D4DFE0012130
:1016C8005A080B401A43F307CE401343039A5D4967
:1016D8005218002A00DCD5E0590709D00F2119401B
:1016E800042905D0191D99429B415B42F6180B004D
:1016F800F10106D58021C9008C46534A1640039A49
:10170800624452498A4200DD09E17407DB081C4340
:10171800F60813053603009A360B3343D2071343F2
:10172800200019000BB0F0BD2C0004432BD0002D75
:1017380016D02800FEF71EFE040002000B3C1D23F5
:1017480030001B1B1100D84008398D4003002B4383
:1017580035008D403E492C008A1A1D000392DCE6B4
:10176800FEF708FE04000200153420321C2CE6DDCA
:10177800330008388340EDE704002C4307D0039377
:1017880004000323CAE6250001230394C6E6039355
:1017980025000223C2E6009B334329D0002E14D033
:1017A8003000FEF7E7FD010003000B391D22180089
:1017B800521A009908388640D1403143009E86402D
:1017C8002348C01A33000E00C0E6FEF7D3FD01001F
:1017D8000300153120331C29E8DD009908388140C1
:1017E800EEE7009B334307D0030010000322AEE668
:1017F8001E0018000122AAE610001E000222A6E61A
:1018080001218140A6200F00C0000740014227D1D6
:1018180090208000014277D1B938FF38014200D1C9
:10182800ABE604990091022A79D0032A75D0012ADF
:1018380000D04BE70026340032006AE7FF070000BB
:1018480001FCFFFFFF030000FFFFFFFEFE07000093
:101858000DFCFFFF059900910F2805D00B28E0D05B
:101868002E002300029ADEE78022120315424FD091
:1018780016424DD13500049A00921C0048E0069AA1
:10188800039223E70120801A3828D3DC1F2827DC9D
:101898002649039A8C461C006244310093409140CB
:1018A800C4401A002143531E9A410B00C6401343FB
:1018B8005A0709D00F221A40042A05D01A1D9A4245
:1018C8009B415B42F6181300802130000904084050
:1018D8000E4227D17407DB0802001C43F60818E7FC
:1018E8001F2149428A1A3100D1400022202805D000
:1018F8000F48039A844662449640320013435A1EA6
:10190800934100260B43D3E780253C002D03009725
:10191800802636032E43074AFBE63500ADE700264E
:101928003400F8E7002601223400F2E61E04000025
:101938003E040000FF070000F0B585B00092019357
:10194800CB0F0D030293019B4C006D0A410F2943F5
:101958005D001E036B0D9C46019B760ADD0F009B04
:10196800009A5B0F3343BE4E640DC000D200B445ED
:1019780023D11E0016430396039FBA4EA619002FC3
:101988000CD0029F0095AF4200D0B5E1002E00D1E7
:1019980004E1002C00D0BAE26446B8E001276F40A9
:1019A800029D0097BD4200D0AFE1002E00D1F5E0C6
:1019B800002CF1D0039908002FE00126754000950E
:1019C8006546029F009E651BB74200D02EE1002DA0
:1019D80000DC76E06746002F21D11F00174300D1B5
:1019E80022E16F1E012D15D1821882428041C9184B
:1019F80040420918012410000B0200D496E002248A
:101A0800994B42080B40012101400A43D807104373
:101A180059088BE0924EB54222D1914C86E0904E07
:101A2800B44200D182E00026B4460136382D1ADCD3
:101A380080262F00360433431F2F31DC20251E005B
:101A4800ED1BAE40B44616000095FE4065462E4399
:101A5800009DFB40AA40551EAA4116439C4602E041
:101A68000126382FE8DD361886428041614440421D
:101A7800091830000B0259D50026794B0134B446B9
:101A88009C42BDD1794B24051C4063461B031B0BAC
:101A98001C43029B3000DB071C43210005B0F0BD4E
:101AA8003D001E00203DEE400025202F03D040358C
:101AB800ED1BAB401D0015436B1E9D4100232E43BB
:101AC800CCE7002D6AD065462D1B002C1ED00024C3
:101AD8000126382D12DC8024240421431F2D4BDCE1
:101AE80020240F000600641BA040A740EE403743A7
:101AF8000600E940701E86410C003E43B018904233
:101B08009241E4185242A1186446B3E72C000D0034
:101B1800054329D0651E012C23D18018904292419B
:101B2800C918524289180B0200D568E7430709D043
:101B38000F230340042B05D0031D834280414042FC
:101B4800091818000B0200D4E4E10026444B0134C4
:101B5800B4469C4296D0444BC0080B405E070643EF
:101B6800CDE13F4EB44202D119001000DEE7382D16
:101B7800B4DD00240126C1E72C000E00203CE6401D
:101B880034000026202D03D04036761BB1400E00CD
:101B98000643711E8E4126430024AFE7344E651C70
:101BA800354233D10D000543002C11D1002DDBD077
:101BB8001D001543BAD0821882428041C91840429C
:101BC800091810000B02B1D5274B01341940ADE7B5
:101BD800002D00D19BE11C001443002C00D11CE710
:101BE8004C07C00820438024C9082403214208D098
:101BF800DD08254205D129005B07D0081843009B62
:101C08000293CB00410F1943C00006E7144CA542CC
:101C180000D196E1821882428041CB1840421B18BD
:101C2800D8075208104359082C007FE7002D76DDAD
:101C38006646002E2ED11F001743F5D06F1E012DCA
:101C480018D1821A90428041C91A4042091A0124C7
:101C580010000B0200D469E7490206004D0A02E1B0
:101C6800FF07000001F8FFFFFFFF7FFF0000F07F84
:101C7800FE070000B74EB54200D1CEE60126382F48
:101C880015DD861B6346B0428041C91A4042091AD5
:101C98003000DEE7AF4EB44200D147E70026B44635
:101CA8000136382DEDDC80262F00360433431F2FF4
:101CB80011DC20251E00ED1BAE40B4461600009531
:101CC800FE4065462E43009DFB40AA40551EAA4192
:101CD80016439C46D5E73D001E00203DEE400025FA
:101CE800202F03D04035ED1BAB401D0015436B1E64
:101CF8009D4100232E43ECE7002E67D0002C25D011
:101D080019001000934C029510E7002E5ED0002CAD
:101D18001FD003998F4C0800009B029306E7002D03
:101D280054D065462D1B002C1FD1009C02942C001A
:101D38000D00054300D117E7651E012C0CD1101AC0
:101D480082429241591A5242891A82E702956446A0
:101D5800EEE7009C0294FAE77E4EB44200D103E716
:101D6800382D09DD0021012614E0382D2BDC8024D4
:101D780024042143009C02941F2D13DC20240F000F
:101D8800641B0600A040A740EE40441EA041E94065
:101D98003E430643901B82429241591A524264467E
:101DA800891A56E72C000E00203CE6400024202D1E
:101DB80003D04034641BA1400C000443611E8C41D5
:101DC80000212643E6E700990291CBE7624E651CA5
:101DD800354238D11D001543AC460D000543002C93
:101DE80025D1002D08D1614626000294002900D192
:101DF80048E6190010008FE76546002D00D195E6EA
:101E0800861AB042BF41CD1A7F42ED1B2F0206D57C
:101E1800101A82429241591A5242891A7CE73300B9
:101E28002B439C4600D18FE0290030007EE6002D30
:101E380007D1614600297AD01900009B100002934F
:101E4800EBE56446C9E6861AB042BF41CD1A7F4227
:101E5800ED1B2F0228D5161AB24292415B1A524244
:101E68009D1A009B0293002D26D02800FEF782FAC7
:101E78000300083B20223100D21A9D40D14029435B
:101E880035009D409C423DDC1A1B0132202308008E
:101E98009B1A2C009D409840D4406B1E9D41D14018
:101EA80020432843002441E633002B439C46DAD1E3
:101EB8001E001C000293E5E53000FEF75BFA030004
:101EC80018331F2BD6DD3100083881409C4212DCC4
:101ED8001B1B5A1C1F2AD9DD0C001F3BDC402800A5
:101EE800202A03D040239B1A99400800431E98419A
:101EF80000212043D6E7E41A184B0B405E07DB08A5
:101F08009C46BFE5E41A154B280019400EE6190057
:101F1800100082E54B07C00803439C460D4B6646FC
:101F2800C9089C4213D10E4304D1B446AAE50291D4
:101F38008021090380231B030B436646054C9C46FE
:101F4800A0E50026034CF0E7260002949AE58C46AB
:101F580098E5C046FF070000FE070000FFFF7FFF6F
:101F68000B0070B5114E0C0349000200240B002031
:101F7800490DDD0FB14204DD0D48814202DD0D4BF4
:101F8800E81870BD8020400320430B4C641A1F2CB6
:101F980008DC0A4EE240891988401043002DF0D031
:101FA8004042EEE7064B5B1AD840F7E7FE03000015
:101FB8001D040000FFFFFF7F33040000EDFBFFFF5F
:101FC8001304000070B5030002000600051E11D0BE
:101FD800C21785185540C40F2800FEF7CBF90D4AE3
:101FE800121A0A280FDC0B232E001B1A1530DE40AC
:101FF800854023003603360B12053243DB071A43AC
:102008002800110070BD0B38854023002E000025E4
:10201800F0E7C0461E04000010B503000400021ECD
:102028000CD0FEF7A7F90B4A121A0A280DDC0B236D
:1020380021001B1AD94015300B0084401B031B0BD1
:1020480012051A432000110010BD23000B388340ED
:102058000024F3E71E040000FE2270B54400240E9D
:102068004302611C5D0AC60F11420DD0E0229200A6
:10207800A4181B0B6D071B031B0B2405F6071C4339
:1020880034432800210070BD002C18D12300002DF6
:10209800F1D02800FEF76EF90A280ADC0B232A0083
:1020A8001B1ADA401300020015329540094C241A15
:1020B800E1E703000B3B9D402B002500F6E7002DD0
:1020C80006D01A0B80231B036D071343024CD2E77B
:1020D8002B00FBE789030000FF070000844610007F
:1020E80062468C461900634600E0C0461FB500F002
:1020F800F7F8002801D40021C8421FBD10B500F030
:1021080037F84042013010BD10B500F0E9F800285A
:1021180001DB002010BD012010BDC04610B500F045
:10212800DFF8002801DD002010BD012010BDC046E9
:1021380010B500F05FF8002801DC002010BD012078
:1021480010BDC04610B500F055F8002801DA00208F
:1021580010BD012010BDC04610B5002903D1FEF7FF
:1021680009F9203002E00800FEF704F910BDC04666
:10217800F0B50D0087B00092019304000490019817
:10218800EB0F4600C70F1A4803938446009B0903C8
:102198000593019B6A001B030120090B520D1B0BC1
:1021A800760D624503D066450DD107B0F0BD964265
:1021B800FBD1009A0B4313432343F6D1039BD81B4F
:1021C800431E9841F1E70120B242EED19942ECD189
:1021D800049B059EB342E8D1039BBB4206D0002A6C
:1021E800E3D121434B1E99410800DEE70020DCE7DC
:1021F800FF070000F0B587B0009001911D00009B1B
:1022080014000493019B29031A03130B334A039305
:102218009446019B68005F007B0D0293029A019B24
:102228000594DB0F090B400DEE0F624512D1009AA1
:10223800039F17434FD1029A904204D00120002BEC
:1022480006D0023804E02143081E44D1B342F5D138
:1022580007B0F0BD604511D121433CD1029A002A54
:1022680004D0B342EAD1181EF2D105E0009A0399CE
:102278001143F6D1301EEBD101202DE0029A002A3D
:1022880017D00028DAD0B342D8D1029A8242D5DCDE
:10229800029A8242E7DB039A8A42CFD8E3D1049AB2
:1022A80005998A42CAD8049A059900208A42CFD251
:1022B800D9E7009F039A1743002802D0002FD9D0EE
:1022C800CFE70C4304D0002FD4D0B342E3D0B5E716
:1022D800002FBDD0B2E702204042B9E7FF07000057
:1022E800F0B587B0009001911D00009B1400049385
:1022F800019B68001A03130B344A03939446019B0D
:1023080005945F007B0D0293019B029AD90F2B0362
:102318001B0B400DEE0F624513D1009A039F174324
:1023280052D1029A904204D00120002907D00238E5
:1023380005E00220234302D11800B142F4D107B0CE
:10234800F0BD604513D102202343F8D1029B002B36
:1023580004D0B142E8D1081EF1D105E0009B039AF0
:102368001A43F6D1301EEAD101204042E7E7029A2B
:10237800002A17D00028D7D0B142D5D1029A82427C
:10238800D2DC029A8242E6DB039A9A42CCD8E2D1A6
:10239800049B059A9342C7D8049B059A0020934250
:1023A800CDD2D8E7009F039A1743002802D0002F08
:1023B800D8D0CEE71C4304D0002FD3D0B142E3D00D
:1023C800B2E7002FBBD0AFE70220B8E7FF07000055
:1023D800F7B5040C0D0091B20F0061438C4606005E
:1023E800019383B2100C5F43444358433B0C604451
:1023F8001B18994202D98021490264180199554352
:102408007143180C04191B04BFB24919D8190919CA
:1024180003B0F0BD10B5002802D0FDF7C9FF0130A8
:1024280010BDF0B506000F0015001C0085B08B42EA
:1024380063D801D1824260D821002800FFF78CFEC2
:10244800390000903000FFF787FE009B21001B1A1F
:102458001A0028000393FDF781FF00900191B9420B
:1024680045D801D1B04242D8009B019C01200021EF
:10247800039AF61AA741FDF771FF04000D00039BAC
:10248800002B2BD0019B009ADB0750081843019BB7
:102498005908039B9C46B9422CD801D1B04229D88F
:1024A80032003B00121A8B41012692185B4100272B
:1024B800B6185F4101235B429C446346002BEAD176
:1024C80030003900039AFDF72FFF039AA4197D41C4
:1024D80006000F00FDF742FF241A8D410A9B002BCE
:1024E80001D01E605F602000290005B0F0BD002407
:1024F8000025C4E7B6197F41DCE700240025EDE795
:10250800F7B517001E0004000D0000F011F80200D6
:102518000B000090019138003100FFF759FF241A91
:102528008D41089B009801991C605D6003B0F0BD67
:10253800F0B504000D001000190085B0002D11DB66
:10254800002B00DA82E026002F0014001D00BD4297
:1025580004D800D080E0B44200D87DE000200021FB
:1025680005B0F0BD00236242AB41002968DB1600CC
:102578001F0004000D00BD4278D801D1B44275D8BF
:1025880001235B42290020000393FFF7E5FD390092
:1025980002903000FFF7E0FD029B29001B1A1A0089
:1025A80020000293FDF7DAFE04000D00B94255D869
:1025B80001D1B04252D801200021029AFDF7CEFE87
:1025C800361BAF4100900191029B002B2CD0EB07EA
:1025D80060081843029B69089C4601240025B942FB
:1025E80041D801D1B0423ED832003B00121A8B418B
:1025F80092185B4112196B4116001F0001235B42C0
:102608009C446346002BEAD1009C019D029A30004D
:102618003900FDF789FE029AFDF7A0FEA4197D4155
:10262800241A8D410094019500980199039B002B71
:1026380000D195E703000C0000215842A1418FE723
:1026480016001F00002544428D4180E726002F0018
:10265800002544428D418EE7002393E700220023A2
:1026680000920193B0E7B6197F41C7E70020002127
:10267800E0E702780B78002A03D0013001319A4252
:10268800F7D0D01A704703000A7801311A70013365
:10269800002AF9D170470023C25C0133002AFBD11C
:1026A800581E7047F0B50725424C89B0236800AF23
:1026B8002B40022B25D96E4688B06A463E4B5361A3
:1026C8003E4B936180239B0093833D4B1361E6212E
:1026D800002320001032490101F0F2F82368B546C2
:1026E8002B40022B0DD9374BFB610223BB6108211C
:1026F80010225218862100232000D219490101F026
:10270800DFF8314D3A21AE682800F36898477860C1
:10271800002817D023685B0710D06D4688B06A463A
:102728002A4B53617B68936103231361C221002301
:1027380020001032490101F0C3F8AD460020BD4623
:1027480009B0F0BD08223369BA183B212800984720
:10275800072223681340022B26D9F868FFF732FCBA
:1027680000221B4BFEF73CFC0500B8680E00FFF783
:1027780029FC02000B0028003100FEF741F9002275
:102788000023FEF73DF96D4688B06A46114B90610B
:10279800D161536104231361832120007B681032C7
:1027A800890101F08DF8AD4600210B4807F05EFD68
:1027B800A7E7C046B00200209C090110BC0901101F
:1027C80003000001C509011020FA0010D509011005
:1027D80080842E41E6090110204E0000F7B500AFB5
:1027E80015007860396000F0C7F8C3680400002B52
:1027F80003D143691A78002A5CD10023E360636837
:1028080039689A00525879688B4208DB494B6361F2
:10281800200000F097F801204042BD46FEBD511C43
:10282800616116782D2EF1D1911C61615178A160FA
:102838002D2905D19278002A0DD101336360E5E78F
:10284800002908D13B4B3100280063610CF07CFE65
:102858000028DDD0A660A668280031000CF074FEC0
:10286800030060693A2E01D0002B28D10378002B91
:1028780002D16368013363602368002B15D02B787D
:102888003A2B12D02C4803685B070ED06D4688B0EF
:102898006A462A4B96615361032313610023103261
:1028A800C221490101F00CF8AD46200000F04AF8B9
:1028B8003F20B2E75A1C42611B788360CBE75B7804
:1028C8003A2B0CD0002323610378002B02D16368D4
:1028D80001336360200000F035F8A0689DE70378B5
:1028E80062681449002B07D178680132626090420F
:1028F80005DD3B689200D05820616161E7E76161BE
:102908002D783A2D04D1200000F01CF8280084E727
:102918002268002AC9D0084802685207C5D06D4607
:1029280088B06A46064996615161032111611032E7
:10293800B6E7C0461911011080020020070A0110ED
:102948001C0A01100268074B1A60074B42681A609C
:10295800064B82681A60064BC2681A60054B02690A
:102968001A6070471C00002018000020F81400208E
:10297800F4140020F01400200048704700000020E4
:10298800F0B597B0059304230B921A400B9B0A925B
:10299800DA0807231A40013207001C9C03910D92A4
:1029A800820700D0CBE1061D002804D0072909D8EA
:1029B8001C20404255E1039A1A401300161D0822B4
:1029C800D31A0393059B0425013B0693002309931F
:1029D8000C9304930293013B07930195002F01D0B8
:1029E800059B33600D9B002B00DDF2E09E4B059AA2
:1029F8009A4203D39D4B9A4200D2EAE00B99F21B0C
:102A08009308890700D50EE1049A0F2A00D9BCE083
:102A1800002F00D10FE104990EAA53540A00079918
:102A280012AB99540C9B01330C93F5E008250195E2
:102A3800069B01330693069B9878002800D106E18F
:102A4800029B002B08D12528F2D1079B013307935D
:102A5800012302930425EAE77A284AD84B280ED89E
:102A6800472846D829282CD825283FD041D82028BF
:102A7800DED0233843425841C3B20293D8E74C38DA
:102A88002E2836D8FDF78CFBD43535353535353518
:102A980035353535373535353535353535613537AE
:102AA80037616161D437D235D43518371835357A5E
:102AB800E63735353735E6000023089304250293B9
:102AC80027E0012213002A38C0B2834068490B422C
:102AD800AED1E2211800890508400B4235D1190012
:102AE800114002911342A3D0089013E0079B013BC9
:102AF80007930023C1E70022069B08925B780292A5
:102B08006C2B07D10425069B01951B786C2B01D1F2
:102B18006D190195013E70192900FDF769FB68439D
:102B28000600002F3CD0019B039ADB1B1B189A421E
:102B380000D23DE7089B002B42D1019B042B21D1F9
:102B480008CC03600423043616E0072207349443B4
:102B5800B318934303CC002F08D00132D21B039E35
:102B6800D218B24200D923E71860596008331E0012
:102B78000825002302932B00019359E7029B089331
:102B880000239BE7019B082B01D0162011E70723A0
:102B980007349C430CCC0260436008230836EBE7FB
:102BA800089B002B0CD1019B042B01D10434C9E7ED
:102BB800019B082BE9D10734013B9C430834ECE71F
:102BC800069B023306930D9B013B0D9308CC05939E
:102BD80004E70B9B9B0722D50121F21B9308802059
:102BE80080008242D1D2049A0F2ACED8002F1CD05E
:102BF8000498DBB20EAA13549C46079B12AA1354DE
:102C0800002900D10EE780226346524213430EAAE0
:102C18001354099B01330993049B01330493069BC6
:102C28000436013B06E70021D9E7002903D0039BBE
:102C380001330393F0E7039B023303930A9B002BB2
:102C4800EAD10598FFF727FD039B1B18F1E78022BF
:102C5800F31BD200934298D2002F0BD10398083867
:102C6800C01817B0F0BDC04660F90010C03101109F
:102C7800DAFF00009B08302238603B706B469B18D7
:102C88000A9A1B78002A0BD0FB70099BBB70002B9B
:102C98001BD100240EAD049BA3421BD1F01BE0E71F
:102CA8007B70F2E70EACE4560EA9595C002C07DAEB
:102CB800039DB4180140A54200D279E6317001366F
:102CC800013304999942EDD1E3E7012200237F20E3
:102CD800D21BF6E7099B002B02D02B787F2B1ED83E
:102CE8000A9B002B1ED012ABE35C33700023013625
:102CF80001930123019ADB1B9B18039AF3189A424C
:102D080000D255E6731C02932B78019A337005990B
:102D180002980CF0EAFD029B019E9C466644013431
:102D28000135B8E72B789B00FB181A6805920A9AB8
:102D380005981A60FFF7AFFC431C0193D9E70E20F2
:102D480037E6C046F0B59BB000AF3B628023FB1866
:102D58001B6806001B07DB0F7B618378F9623A6307
:102D6800BB6300290AD10478BB6BA400E41845783A
:102D78000419FB6A9D421CD8A31BFB62F378BB6154
:102D8800BB6B002B04D08023FB181B68DB071AD40D
:102D9800BB69002B00D06FE03B6B002B03D03000E9
:102DA8003A6AF96A9847FB6AFB63BD46F86B1BB041
:102DB800F0BD01342000FFF76EFCFB6A01300133DF
:102DC8002418FB62D5E73378FB619B007B6273684C
:102DD800BB627B6AF4183B6B002B00D03FE1FB6AB7
:102DE8002500FB63BB6BE41800237B63A5425BD122
:102DF80080220523BA181268250013405A4253410D
:102E08000133FB62BB695B00E3183B633B6BAB427E
:102E1800CBD02B78BB636B789B009C59BE4B9C42F4
:102E280002D3BE4B9C426BD37B69002B7BD0B96B22
:102E3800B86A09F0FEFA002875D00623B848026877
:102E48001A4214D06C468AB06A46B64B5361BB6AC4
:102E58009361BB6BD36180239B001384B24B1361D6
:102E6800922100231032890100F02AFDA546FB6B50
:102E7800023BFB630235C9E78023FB181B689B07ED
:102E880000D489E73378FB619B007B627368BB627F
:102E98007B6AF4183B6B002B64D1FB6AFB63BB6B4A
:102EA800002B1ED17B63A3E72B789B009859FFF773
:102EB800F2FB84217B181B680130002B0CD0882280
:102EC800BA187B6B1268934206D27A1812685B00B4
:102ED80098527B6B01337B63FB6B01351B18FB63DB
:102EE80084E7802104237A1812681A407A637A18D2
:102EF80012681A4200D17BE7BB6BE4183B6BD1E741
:102F08007B69002B05D0B96BB86A09F092FA0028E2
:102F180093D180230122FB181B68134209D1FB6B54
:102F2800FA6A9B1AA5E780230222FB181B68134242
:102F3800A0D02000FFF7AFFB84217B181B68002B73
:102F48000DD08822BA187B6B1268934207D2791881
:102F580009685B00421C5A527B6B01337B63FB6B35
:102F68001B1886E7BB6B1D1E7B6315D080210423CD
:102F78007A1812681A4015007A637A1812681A4289
:102F88000AD00023BD6B7B63183340229B182100B5
:102F9800BA6BD8190CF0A9FCBB6BE318FB60FB6398
:102FA800BB695B003B613A69FB68944663447B609C
:102FB800FB6B7A68934257D17B6B747800211A199E
:102FC8008023FB181B68D2B29B0700D469088020B5
:102FD800381800680023C00705D48033FB181B6825
:102FE8005B07DB172B407270B370F17030003A6AE0
:102FF800796A3B6B9847F863002800DAD5E6FB69E5
:1030080040203370BB6B7470B370BB692900F370D8
:1030180018231B18D8193A6A3B6B9847041E00DA24
:10302800B4E0FB6ABA6BF868991A7B6A3A6AC91AFB
:103038003B699C46C91A60443B6B9847002800DAF4
:10304800A6E00025FB6B1C192318FB637B6B9D42D4
:103058006CD300213A6A08003B6B9847A5E6BB6B26
:1030680000257B63082390E7FB6B2B4A1B78BB602A
:10307800FB6B5C78A3009B59934202D3274A934287
:103088000CD37B69002B30D0B968B86A09F0D1F944
:1030980000282AD0FB6B0233FB6389E77B69002B8E
:1030A80005D0B968B86A09F0C4F90028F2D18023BC
:1030B8000122FB181B6813420AD07B6B9B1807324E
:1030C80040215218796BD219DBB254547B63E1E783
:1030D8008023FB181B685B07DCD518224021521897
:1030E8006B1CD2195455DDB2D4E780230222FB1899
:1030F8001B68134203D07B6B06320133E0E74021A3
:1031080018225218B9686B1CD2195155DBB2023516
:10311800EDB2D454BEE7C04660F90010C0310110CA
:103128007C020020450A0110040000014022082307
:103138009B18DB19EB5C0732BA18137084229B00CA
:103148009B59BB63BB181C68002C01D06B00E45A68
:1031580047230121F8183A6A3B6B9847002817DB88
:10316800FB6B1B18FB63002C04D1B86BFFF793FAB9
:10317800013084B221003A6AB86B3B6B984700284B
:1031880006DBFB6B01351B18FB635FE7F8630CE696
:10319800F8630AE6014B18607047C046200000201B
:1031A800F7B504000D001E00019207F077F8030040
:1031B8000CF0C8FB054F32003B5001992800A0478E
:1031C8000CF0C0FB385803F041FDC0460800000071
:1031D800F7B505000600002D01D13000FEBD28001E
:1031E800FDF7E6F801238340DA430E4F04019D43BF
:1031F8003B1901931B7B0092002BECD0E3591B6910
:10320800002B09D1009B3C191E40636804221968F1
:10321800019800F01BFBDEE7381998470028DAD13F
:10322800F0E7C04684FB0010F0B5002289B00F49D2
:103238000F480CF05EF80024002600270E20C0225C
:103248000C4D03900696079728000B4B0B490494E6
:10325800029401940094920006F0EEFB08492800BD
:1032680006F028FB200009B0F0BDC0468D320010E2
:103278001008002050030020893500100024002089
:103288003A0F011010B5024806F0F8FC10BDC04610
:10329800CC020020F7B500901E48019109F062FEAB
:1032A800061E33D000252800FEBD237B002B10D03E
:1032B8002368DB68002B01D02000984723681B692E
:1032C800002B1BD1636804222000196800F0BEFAA5
:1032D80001361034104B9C42E7D3009B002BE2D000
:1032E800002DDFD02800FFF773FF019B0500002B9E
:1032F800F6D00021642006F0B9FFF1E720009847D6
:103308000028DFD03B00B3401D43E1E7050001275B
:10331800024CDFE70C15002094FB001084FB001022
:10332800030010B50800002B05D0044A136000F014
:1033380079FD002010BD16204042FBE72400002044
:1033480010B5054C2378002B02D1044806F096FCF2
:103358000123237010BDC046D4230020CC020020D6
:1033680010B50400044809F0FDFD002C03D001212C
:1033780002480BF0F0FF10BD0415002008150020CE
:1033880010B5002101480BF0F5FF10BD0415002011
:1033980070B5FFF7F5FF0500084C094B9C4200D3B8
:1033A80070BD63685B79002B06D023685B68002BCF
:1033B80002D02900200098471034EEE784FB001063
:1033C80094FB001010B5044C0449200009F018FCC7
:1033D800034B1C6010BDC0463402002010FF0010D3
:1033E800FC1400200023FA21074A10B51370074A7D
:1033F80089001360064A07481360FFF791FFFFF73B
:10340800E1FF00F087F910BDD52300200415002046
:103418000815002077CF001010B5044C01000022D9
:103428000023200009F00DFC10BDC0463402002026
:1034380010B5024809F09FFC10BDC04634020020B8
:1034480010B5034B0100186809F0E6FC10BDC04632
:10345800FC14002010B5024809F017FD10BDC04645
:1034680034020020F8B52D4B1878002831D0FFF72A
:10347800DFFF041E0BD00427012129480BF06BFF46
:10348800284D294B9D4225D32000FFF7D9FF274B14
:10349800274C1B68002B11DD0BF027FF0A220023A5
:1034A800FCF7CAFF22686368801A9941002903D192
:1034B800FA239B00984201D9FFF76AFF22686368E4
:1034C800FA200021800012184B4122606360FFF748
:1034D800C1FFF8BD6B685B79002B07D021783942B2
:1034E80006D02B68210028001B6898471035C8E7CC
:1034F80026888906F6056268760F490F002EF0D0F7
:10350800002AEED00B4B2800D21A9208012312B2DF
:1035180000F0B4F9B042E9D3E3E7C046D423002071
:103528000815002084FB001094FB001004150020EF
:10353800080800207802002070B50E4D297800296F
:103548000CD10120FFF7A6FE0B4C0C4B9C4206D376
:10355800FFF788FF0028FBD101232B7070BD63683B
:103568005B79002B03D0236820009B6898471034B0
:10357800EBE7C046D523002084FB001094FB001025
:10358800F7B500210800FFF785FE041E2DD0FA27A5
:1035980000267F000CF0D6F91C4B1D4A1B581360FF
:1035A800002B06D01B4B1B68092B02DD1A4806F0BE
:1035B80065FB00230093002C07D02000FFF708FECE
:1035C800041E02D101277F423E00FFF74BFF019006
:1035D800002808D1009B114D002B13D10E483A004A
:1035E800330006F06FFB019BE4E701277F423E00B2
:1035F800D0E72B689B69002B03D00022280011001C
:1036080098471035064B9D42F3D3E7E708000000C2
:103618000015002008150020CC02002084FB0010B3
:1036280094FB001013B5154809F09CFC144B1B784B
:10363800002B0AD0EFF3108472B6FFF713FF002CAB
:1036480002D162B6BFF36F8F13BD0E4B1B68002B00
:10365800FAD0002809D1002200230B4800920193D8
:1036680000230A4A07F05EF8EEE70928ECD106487D
:103678000BF04BFE064806F001FBE5E708150020B5
:10368800D523002000150020100800201027000076
:10369800CC02002010B5064B04001B689847210097
:1036A800A060044809F04BFBFFF7BCFF10BDC04603
:1036B800240000203402002010B5044B0A00010049
:1036C800180009F0F0FB002010BDC04634020020AD
:1036D80010B5034B0100180009F0F0FB10BDC046FF
:1036E800340200200248034BC01AC0087047C04685
:1036F80084FB001004FB0010044B054A00209B1AB1
:10370800DB08994201D2C9008858704784FB001031
:1037180004FB001070B5002007260849084B094C27
:103728005B1ADB08984200D170BD22680D79B2435C
:1037380035402A4304C401300831F3E704FB001084
:1037480084FB001078020020F8B5060000250A4C1A
:103758000A4FE41BE408A54203D101256D42280065
:10376800F8BDEB00F858002804D03100FEF781FFBF
:103778000028F4D00135EEE784FB001004FB0010AC
:10378800F7B514001E000191002811D105001E4F45
:1037980009E03300220038000199FFF7F1FF854264
:1037A80000D205001037194B9F42F2D32800FEBD06
:1037B800174B184A00259B1ADB08A34205D9E300DA
:1037C800D2181579B54200D93500072603223700EB
:1037D800436811481979A40051438F402358BB43CB
:1037E8002F0037408F403B4300271900D14031401C
:1037F8008F4200D20F0003321E2AF6D1173A9343A4
:103808003B430351D2E7C04684FB001094FB0010F1
:1038180084FB001004FB001078020020F8B50600B5
:103828000F000025074C084BE41AE408A54200D312
:10383800F8BD00212AB23B0030000135FFF7A0FF98
:10384800ADB2F3E784FB001004FB001070B50D0067
:103858001100094B4268C31A1B110400013313718C
:1038680043689971FFF7DAFF012263681D60636896
:103878005A71FFF765FD70BD84FB001010B5040098
:10388800181E0DD00420002A09DB6368094918793D
:103898000323434392005058D8400723184010BDD3
:1038A800054B06495B1ADB089A42F8D2D200891800
:1038B8000879F4E77802002084FB001004FB00106C
:1038C800F0B591B004AF3B600B035B0D0D00786061
:1038D8007A613B610C0D002B00D177E0BB600026BC
:1038E80004237E62BE62FE6202931833FB180193C2
:1038F8000A231822009302339B18DB193200B96897
:103908007869FFF71FFA8023F8601B01984228D3D3
:103918000623334802681A4220D07B696C461A791C
:103928005B798AB01B0213437A69927912041A43AD
:103938007B69DB791B06134304AA9361294B2A4947
:10394800D36180239B001384284B5161136192211A
:10395800330010328901FFF7B3FFA546BD460DB00D
:10396800F0BDFB6817345B055A0D3A61204A1B0B02
:1039780015401D43FB68E01807239843033080086F
:10398800FFF74AFD041E15D0030010337B62FB6865
:10399800FE62BB62042302931833FB1801930A23C7
:1039A8001821009302335B18124AB9687869DB1949
:1039B800FFF7C8F93B690E4A5B0215401D432A0010
:1039C80020003B68796809F012FBC7E7200007234D
:1039D8001730984303308008FFF71EFD0400E9E71D
:1039E80090020020FF070000060B011004000001F0
:1039F800FF01F0FFC9CF0010F0B5002687B0039390
:103A08000E9B04000F001500B34209D00F9B300035
:103A18000593009310210E9B0D9AFEF7B1FF060047
:103A2800072322001D400C9C1A401349D200AD0107
:103A38001543173472020A40A019154398430C9A8B
:103A48000330120580081543FFF7E6FC041E0AD070
:103A58000E9B002B07D00F9B310000930D9A0E9BF5
:103A68001030FEF78DFF2A0039002000039B09F073
:103A7800BEFA07B0F0BDC04600FE0F000EB417B581
:103A8800054C05AB04CB01002000019303F014FAA8
:103A98001EBC08BC03B018475DD0001010B5CB069B
:103AA80004D4890603D50349FFF7E8FF10BD02498E
:103AB800FAE7C04618110110FA0B0110F0B58FB0E3
:103AC800069315AB1B7806000C0008920593002B93
:103AD80000D19CE00225199B199A1D4001231A4028
:103AE8000A92199A07331A400B92002709F059FADB
:103AF8000200B84204D030008449FFF7BFFF070036
:103B0800002D09D04423199A1A4244D122003000CA
:103B18007F49FFF7B3FF3F180A9B002B0AD0059A8D
:103B28007C4B9200D258002A00D17B4A30007B4956
:103B3800FFF7A4FF00240B9BA34208D0059A784BFB
:103B4800920030007749D258FFF798FF0400089B8D
:103B5800002B05D01A0030007349FFF78FFF241897
:103B6800069B002B05D01A0030007049FFF786FF2E
:103B78002418169B6E48E719002B00D09CE0189B70
:103B8800002B51D1199BDB0700D5B8E030001999FB
:103B9800FFF784FF9CE00020664B1D688542BAD081
:103BA800654B20001968FCF723FB2900FCF75CFB38
:103BB8000C00E12109010790FCF756FBFA20800070
:103BC800099160432900FCF74FFB0C000C903C2145
:103BD8000998FCF70DFBE1210D9009010798FCF706
:103BE80007FB0790FA20800029006043FCF700FBE0
:103BF8000C9B02903C2109980193FCF735FB30009F
:103C080000910D9B079A4D49FFF738FF83E7069B04
:103C18004B48012B00D14648169B059F002B4BD1E2
:103C2800189B002B54D00027189D102D00D9102563
:103C380030001999FFF732FF0024A7424DDC179B8B
:103C480030001A783F49FFF719FF012407231C4267
:103C580003D130003C49FFF711FFA54243D9179B18
:103C680030001A5D3749FFF709FF0134102CEDD1F8
:103C7800002430003549FFF701FF23006821179A17
:103C8800D25C334B9B5C8B4300D12E2230003149F0
:103C9800FFF7F4FE0134102C2AD007231C4203D16D
:103CA80030002949FFF7EAFE2300A542E6D8300094
:103CB8002549FFF7E3FEEDE7169B3200264908F099
:103CC80084FB189B002BAFD1059B002B00D059E734
:103CD800300009F0B3F90FB0F0BD30001A49FFF712
:103CE800CDFE0134A9E730001C49FFF7C7FEBCE749
:103CF800179B5B191793189B5B1B1893E2E730001F
:103D0800054A0649FFF7BAFE40E7C0464A0B0110CC
:103D18004E0B011024FF0010450B01105213011027
:103D280038FF0010730B0110790B01107D0B011087
:103D38005DD000101415002010150020570B01103D
:103D480083D00010820B01108A0B01108C0B01101C
:103D5800A1300110190A0110C16E0010880B011062
:103D6800F0B50B8889B0DB055C0F4B680F001500B8
:103D78008E680790002B0CD0134A9A1A92080023D9
:103D880011B2120405D438788006400FFFF7B4FC4E
:103D980003003A003968788809030009490D103290
:103DA80084465718481E814149420A40029261469A
:103DB8000022049107983100059503970194009219
:103DC800FFF77CFE09B0F0BD7802002073B5114AF8
:103DD80004000B000568914200D9130005216846CC
:103DE8000D4A06F065FF06006368280004220B49A7
:103DF8005B6809F015F963683200280069465B685A
:103E080009F00EF963682800172205495B6809F074
:103E180007F973BD0F270000E3090110A60B011075
:103E28008E0B0110012310B500211C00074A904297
:103E380007D8074A002900D101231360054B1860F1
:103E480010BD210040085B00F1E7C04640420F006A
:103E580010150020141500200023054ACB604B6084
:103E68008A60042802D8034B8000C3580B6070474F
:103E780028FC0010940001100023084ACB604B6016
:103E88008A600B60064A074B9B1A1B09834203D9B9
:103E98000001121893680B607047C04618000110A3
:103EA80084FB001094FB001003000020054A10B5A5
:103EB8000C008A60C86048601900FFF71DFC20608C
:103EC80010BDC04628FC001037B505000B4C0C4B44
:103ED8009C4201D300203EBD6068A368427909492D
:103EE800002A00D008490079084A0190009128006A
:103EF800082109F084FA1034E9E7C04684FB001071
:103F080094FB0010D30B0110CB0B0110DC0B01103C
:103F1800F0B50E0085B005000020FFF7E3FB7368DD
:103F280002905B79002B04D1032128001B4A09F079
:103F380066FA082128001A4B1A4A09F060FA082183
:103F48002800194A09F05BFA0024029B9C4202D31C
:103F5800002005B0F0BD2200012300213000FFF74A
:103F68008DFC00232200190003903000FFF786FC27
:103F7800210007000020FFF7BFFB0C49BF0003002A
:103F880078580B4A01900398013480004158280062
:103F98000091082109F033FA24B2D6E7FD0B01108D
:103FA8000F0C01101B0C0110390C0110A800011096
:103FB800760C0110F0B587B00393131F1E680190AB
:103FC800300017000291FEF766FB114B114D04906B
:103FD8000593059B9D4208D30824330001210E4A0E
:103FE800019809F00CFA64420CE03000049AA968C0
:103FF8000BF0B8FA041E08D129003B00029A019878
:10400800039DA847200007B0F0BD1035E1E7C04682
:1040180094FB001084FB00108A0C011010B5024BB1
:10402800FFF7C8FF002010BD193F001010B5024B64
:10403800FFF7C0FF10BDC0469FD0001010B5024B5F
:10404800FFF7B8FF10BDC046A7D0001010B5024B4F
:10405800FFF7B0FF10BDC046F141001010B5024B8C
:10406800FFF7A8FF10BDC046F7D000101FB5040029
:1040780002A901A8FFF720FB002808DA2000012187
:10408800154A09F0BCF90820404204B010BD0821C7
:104098002000124A09F0B3F908212000104A019BB8
:1040A80009F0ADF9200008210E4A029B09F0A7F992
:1040B80003A8FFF70DFB002806DA082120000A4AAA
:1040C80009F09DF90020E0E708212000074A039B3A
:1040D80009F095F9F6E7C0469F0C0110D00C0110C5
:1040E800F80C01100D0D01102A0D0110620D0110C0
:1040F80010B5C36901219B681C79002C03D1034AC0
:1041080009F07DF92100080010BDC0467C0D0110A2
:10411800F0B589B017001D00059006910392002A9A
:1041280003D11000FFF7DEFA0390069B5B685B790A
:10413800002B04D10321284A059809F060F90024CE
:10414800039B9C4222DA0494002F25D02B68002080
:104158000493FFF7C7FA00260790079BB3420BD0DA
:1041680031000020FFF7C8FA402204990BF0FAF951
:1041780000280DD1002E0DDA08CD0121174A059827
:1041880009F03DF9039B0134A342DFDC09B0F0BD1F
:104198000136E2E70494340000210E9B22B206980F
:1041A800FFF7EEFA0E9B040083420FD0002F11D1C7
:1041B80038000499FFF7A0FA03000949A4006158E0
:1041C800084A00910598032109F019F9049C04355F
:1041D8000134B5E72B68F0E7A00D0110CB0D0110F5
:1041E800A8000110B50D0110F0B5070000261C004D
:1041F8005B6887B00293124B03910492059305996B
:10420800B3000422C95802980BF0ACF9051E0BD074
:104218000136052EF3D1082501213800094A029BF1
:1042280009F0EDF86D4208E02300049A380003997C
:104238000833023A0096FFF76BFF280007B0F0BD7D
:10424800A8000110E50D011037B5040005F05EFC6B
:10425800FF25030E010A000C294028400191009017
:1042680008212000024A09F0CAF800203EBDC046D5
:10427800A00F0110F0B58FB00F0016000A900BF0D8
:1042880034F80A220023FCF7D7F805000C00012FA8
:1042980008D100900191284A08210A9809F0AFF83E
:1042A800002014E0766825483100FEF7E2F900287E
:1042B8000FD031002248FEF7DCF9002809D00A980F
:1042C800330001211F4A09F09AF8052040420FB037
:1042D800F0BD2800210000231B4AFCF789F80C9048
:1042E8000D9110001900194A0023FCF781F8070006
:1042F8000B9110001900164A0023FCF779F8050005
:104308001000FA220C00920019000023FCF770F844
:10431800089209930B9B0F4E03930C9B06900791F1
:1043280000930D9B320008210A9804950594029782
:10433800019309F064F8B3E7B90F0110CA0F01102F
:10434800CD0F0110D60F0110005C260580EE360057
:1043580060EA0000ED0F011010B5040004F0C4FC81
:1043680008210300074A200009F049F82000064AFE
:10437800082109F044F82100044805F069FA0020F2
:1043880010BDC0463B1001105A100110994300108F
:104398000300F0B59C338FB00C001D6806000AF0CE
:1043A8004BFE01000BF0CEFA244B1A58244B9642D0
:1043B80000D0244B002900D1234920000191234A31
:1043C8000821009609F01BF8B06AF16A337B029065
:1043D80003910E217156200000911D4A082109F011
:1043E8000EF806A92022300005F074FA716E030059
:1043F800009120000821174A09F001F8300005A9AA
:104408000AF02CFE031E06D008212000124A08F0EC
:10441800F6FF0FB0F0BD6420059E2900AF1B78435E
:10442800FBF7E6FE2B000390082120000B4A0295BB
:104438000197009608F0E3FFEBE7C046080000008C
:10444800832001108A0B01106410011067100110FD
:10445800731001109F100110B6100110E310011025
:10446800F0B500260400802595B031000CAF1C2261
:104478000DA80BF056FA1A22202138000BF051FA39
:104488002100104805F0E4F90F4B2D0129000BAA73
:10449800180009930AF0D6FD64230B990B4A681A91
:1044A8004343DB0A06930490039120000821099BEB
:1044B800059502950197009608F0A1FF300015B008
:1044C800F0BDC046BD450010002F00201A11011094
:1044D80010B5040004F024FC08210300024A20005F
:1044E80008F08DFF002010BD63110110F0B5170012
:1044F800002385B005000A21B86803AA039301F0D8
:10450800B3FC039EC3B2002E09D03300012128005A
:10451800134A08F074FF039E300005B0F0BDC2B224
:104528000192042B0AD9012128000E4A019B08F0A8
:1045380066FF280008F093FF0126EDE77868FFF78B
:1045480003F9041E05DA01212800074A7B6808F0F0
:1045580056FF0021019B080022B2FFF711F9DBE7A3
:1045680079110110A0110110B711011037B513000E
:104578000022050001920A21586801AA01F074FC82
:10458800019C002C0BD1C343DB1718400A220023DF
:10459800C117FDF71DFF05F069FE20003EBD230091
:1045A80001212800024A08F02AFF019CF5E7C046CD
:1045B800D61101100300F0B59C338BB004001F68BE
:1045C800069109A90AF04AFD031E06D00821114ADE
:1045D800069808F014FF0BB0F0BD20000AF02CFD7F
:1045E80005006420099E3900BB1B58430793FBF75D
:1045F800FFFD002D00D1084DBB1B0590039308213A
:104608002300064A0698049702960197009508F039
:10461800F6FEE0E7B610011064100110F611011063
:1046280070B586B00500684604F042FF1423434382
:10463800009E08212800154AF61808F0E0FE009CA4
:10464800B44202D3002006B070BD2368002B02D00C
:104658001A78002A06D1230014210D4A01A806F071
:1046680027FB01AB082128000A4A08F0C8FE2000F1
:104678000AF0C3FC084B002800D0084B082128008A
:10468800074A08F0BCFE1434DAE7C04641130110AB
:104698004B1301105013011038130110321301107D
:1046A800412501100B00F7B5023B050017000191E9
:1046B800022B36D810220021786806F0A1FB019B56
:1046C8000400022B07D108212800244A1E3308F0D1
:1046D80096FE236816E00A220021B86806F090FBCF
:1046E8000821C3B21D4AC6B2280008F088FE019B03
:1046F800042B19D0102E0CD0202EEAD0082E0BD166
:104708002378DBB208212800154A08F078FE00203B
:10471800FEBD23889BB2F5E708212800114A08F05E
:104728006EFE16204042F3E710220021F86806F0DA
:1047380067FB0821070003000B4A280008F05FFE0A
:10474800102E06D0202E07D0082EE5D1FFB22770F4
:10475800DDE7BFB22780DAE72760D8E789130110C1
:10476800B41301109E130110C5130110F0B50125F3
:1047780089B003926D42012220262C00474B0190FC
:1047880002911A60464A03990298FEF727F8431CDB
:104798000DD1444A6B1C05D0F7B2FB080293631C89
:1047A80060D1414A0121019808F029FE19E07328D7
:1047B8001BD0772829D0612813D13C4F1022002123
:1047C800386806F01DFB051EDCD10BF0BBF8384B32
:1047D8001B58162BD6D1374A01213B68019808F09F
:1047E8000EFE1620404209B0F0BD00222F4F1100E6
:1047F800386806F005FB041EC4D10BF0A3F82C4B57
:104808001B58162BBED12C4AE6E70022274F110071
:10481800386806F0F5FA061EB4D10BF093F8244B6D
:104828001B58162BAED1254AD6E7102F21D0202FA2
:1048380025D0082F2CD111781970029952185B18BD
:104848000299A14202D881181029EED92600102C0D
:1048580000D9102629003300019804AA01F0F4F8C1
:104868001035A41B002C16D002992A0004AB481B53
:10487800E6E7118889B21970090A5970DDE71168ED
:104888000E0A19705E700E0C090E9E70D970D4E76E
:1048980008210B4A87E72000A5E7C046180000203A
:1048A800131401101A14011037140110F014002009
:1048B8000C000000D9130110EC130110FF130110B4
:1048C8009E13011070B5104E04000D0032780029B7
:1048D80010D0002A04D001210C4A08F090FD70BDC8
:1048E8000123337008212000094A08F088FD0123BC
:1048F800337003E0012353403370F3D129002000C3
:1049080008F0CAFDEBE7C046D62300205114011079
:104918008C14011070B5040040480378182B02D19C
:104928000B78112B34D00B00013A8D18AB4227D1EC
:104938008B5C0A7803701300303B394C092B06D97D
:104948002023110099430B00413B052B04D8236811
:104958003449CA54013323602368022B37D110220B
:104968000021304806F04CFA2F4A136818700133BA
:1049780013602E4A1368013313600023236026E076
:104988001E78182E02D15E78112E01D00133CDE7A2
:10499800264D08212B682000254A08F030FD20000C
:1049A8000021FFF78FFF234B187800280FD101242F
:1049B800214A2B681168042B0ADC002801D01160F9
:1049C8002B6099070AD1126813681BBA136070BD6F
:1049D8000868043B00BA01C12000ECE717490B4006
:1049E80004D50421013B49420B430133022B04D176
:1049F800126813885BBA9BB2E8E7032BE7D1FF2460
:104A0800106824040268130C11042140DBB20B4324
:104A1800FF2109020A4013430360D8E7D723002087
:104A280018150020D9230020241500201C1500206B
:104A3800B6140110D82300202015002003000080A0
:104A48000023F7B50E001400254A264F1360264AA6
:104A580000903B7013606568012E20D9234B022219
:104A68001900280001930AF07DFD0023984202D125
:104A7800AB785A1E9341ED18022228001C490AF00F
:104A880071FD002804D101233B700434013EE2E7A4
:104A980028000199FDF7EDFD002814D10434002207
:104AA8001100606806F032F90022124B11001860FC
:104AB800606806F02BF9104B104918600098FFF752
:104AC80001FF0020FEBD2B782D2BE8D16B78002B41
:104AD800E5D02B0008210A4A009808F090FCD4E79A
:104AE80018150020D82300201C150020D014011010
:104AF800D314011024150020201500201D49001092
:104B0800D614011013B50A4C20000AF076FA0028D2
:104B18000AD00423074A0093210007481268033B80
:104B280000F05AFE002016BD13204042FBE7C046A5
:104B3800E4F900100802011098FB001010B51400E9
:104B480042681068016011684C6011688B601368D6
:104B5800D1681C680023CB608B604B608B614B6114
:104B68000B611169CB608B604B608B614B610B6192
:104B78001168CB60A368002B05D09B6C002B02D07A
:104B8800200005499847A3689B6A002B01D02000A4
:104B98009847002010BDC046A54B0010F0B5040092
:104BA8000D008BB083685B6C002B00D09847A3681E
:104BB8005B6B002B20D100230193286903A9C269EC
:104BC80007F085FE071E37D0A36803999B69002B61
:104BD80027D0020020009847061E25D031002869FA
:104BE80007F091FE01230193B742E6D02B6800201D
:104BF8005A689968904703E0200098470028DAD15E
:104C0800A3685B6A002B2FD1E86804A9C26907F082
:104C1800AEFE061E2ED1200008F0AFFA2B68DE602B
:104C280034E058267642D9E70100286907F06BFE80
:104C3800019B002BE4D0D9E70623194802681A42E1
:104C480009D0184B09930223089384213B0008AA32
:104C58004901FEF735FEA3689B69002BE8D00122C5
:104C6800200004A99847E3E7200098470028CBD103
:104C78000BB0F0BDA36804995B69002B0CD002004F
:104C8800200098470100E86807F08DFE2B68012096
:104C98005A6899689047EBE758214942F3E7C046BC
:104CA800AC0200203716011010B5040081680831E5
:104CB80001F0B0FBA1682000024A083101F050FB66
:104CC80010BDC04679160110992370B582689B0003
:104CD800D3580400DB0720D4C06908F07CFF606863
:104CE80003685B689847051E04D1E06809F091F8ED
:104CF800A3681D71A3685B6B002B02D029002000FC
:104D08009847C32300210AF01DFEA2689B00D150DA
:104D1800034B185801F09AFF70BD10256D42E9E762
:104D28000800000010B5024908F0B7FA10BDC046E7
:104D38001811011099239B0010B5C018002904D040
:104D48008021090108F081FA10BD024908F081FAB2
:104D5800FAE7C046FFF7FFFF9923F7B5040080681C
:104D68009B00C3580E005B0705D5002108F0B3FA75
:104D7800E06809F020F8E368DB68002B0FD1002E0B
:104D88003DD0A5682F004237380008F07DFA00288A
:104D980036D0280043303900FF30FDF774FC6B46ED
:104DA800A2683100E0684232063309F007F80028AB
:104DB8000CD1A06801004331FF314230FDF763FC9C
:104DC800A068423008F060FA6B46D880200008F0EE
:104DD80005FD9823A2689B00D3589B0603D50A4972
:104DE800606908F05AFA200001F0E8F86B46A268FA
:104DF800DB882000D387A268938708F099FCF7BD69
:104E0800A1235B00E854CAE740FC0010F0B5ADB040
:104E180004005422002117A80AF083FD00230B93F5
:104E28000C93A36820004233089308F0DFFC2000AD
:104E380008F067FC002802D16069FFF773FF0026BD
:104E4800A0681422002108300AF06BFD200000F051
:104E5800D5FFA168E0688A8F423108F0E6FF20009C
:104E680009F06AF8012335005B42049317AB0796F3
:104E780009960393069605960C9A0B9B012A00D176
:104E880076E0132B00D977E0049B002B2DD1069BED
:104E9800002B09D0200009F070F8A26814234232D0
:104EA80017A90BA800F058FE059B002B0AD05B7CC5
:104EB800FE2B07D10B9B17AA99008A58002A01D00C
:104EC80001330B93A0680B9D4369002B00D0C4E00D
:104ED800002E1FD0C3689E4232D0139612AB083002
:104EE80026CB26C006CB06C02AE00223089A0399DF
:104EF8000CA800F031FE039A0C995268030008923E
:104F0800002907D0012908D1002806D06F4A2000BF
:104F180008F016FD08256D4216E00B9B002B3BD0D0
:104F2800039B186801F094FA002816D0002E0ED0C2
:104F3800A368139612AA083323CA23C303CA03C358
:104F48002000FFF7B1FE012528002DB0F0BD604A12
:104F58000121200008F0F4FCDCE70B9B002B1BD0A0
:104F6800039B290020001A6801F036FC02280BD1A7
:104F78000B9B132B00D88AE70C9B022B00D086E7EB
:104F88000121544B544AC2E7032805D00B9B013337
:104F98000B93012306936FE7099B002B06D1039B14
:104FA800059819680DAA08F00AFB0500039B04334D
:104FB8000393049B013B0493002D38D0069AEB68B9
:104FC800002A09D0002B1BD0200008F00FFC20007D
:104FD80008F0AEFB414ABBE7002B11D00B9AA3683F
:104FE80007922A00083383CA83C303CA03C3AB6882
:104FF800002B05D16B7CFE2B02D12B7C013B04934B
:1050080068680595002807D012A90B002A00C2CAB3
:10501800C2C342CA42C30600049A0C9B002A02D1AA
:10502800022B00D028E70B9B01330B9324E70B9B43
:10503800002B02D001230993EEE7A368DB69002B5C
:1050480002D0DB68002BF5D1254B0121009320000D
:10505800244A179B08F074FCECE7079BED1A037EC3
:10506800002B13D0427EFF2A00D11F4A9D4202D353
:105078009B189D420AD98368012120001B4A08F029
:105088005FFC2000FFF710FE162544E7BE2601212D
:10509800FFF750FEA068B600801908F03CF9079B9E
:1050A80017AA9B00D218A368290020005B699847BB
:1050B8000500A06801225242D317801908F0F8F8B9
:1050C8000021A068FFF736FE3EE7C04687160110AC
:1050D8009B160110FC1601109B0C0110B91601104B
:1050E800E8160110DA190110FFFF0000201701105F
:1050F800022210B5836804001A7183689B6B002B29
:1051080017D108F099F89923A2689B00D358DB04BB
:105118000CD503212000074B074A08F011FC9923FE
:10512800A0689B000549C01808F093F8200001F01A
:1051380085F810BD3B17011052130110FFEFFFFF58
:105148009923F0B5040080689B00C0180121B5B010
:1051580008F07BF8A3681B79022B22D100230D935A
:10516800A36860689E6B03681F69002E23D00DAB8F
:1051780010221FA9B8470D9B002B12D00121A0684F
:10518800FFF7D8FD20000D9A1FA9B0470021A0689D
:10519800FFF7D0FDA3689B6B002BE1D12000FFF740
:1051A800A7FF99230221A0689B00C018494208F074
:1051B80050F835B0F0BD0B250AABED1801220DAB48
:1051C8002900B8470D9B002BEBD0002169562B789E
:1051D800A2680029C4DB5079032800D9ECE2FAF769
:1051E800FDFF04008702A002E902992189000D2B26
:1051F8005AD00A2B31D0505A984E30405052A0689D
:10520800092B6AD013D8002BAAD0082B00D1E9E1CA
:105218009348591CC9B2415C6820A268814300D1F7
:10522800EDE10121100008F056F829780DE11B2B5B
:1052380050D07F2BECD19825AD0043599B0700D463
:105248008EE7012108F047F8A3685B591B0700D5D2
:10525800D1E1200008F0B4FB82E750584005000E69
:105268000BD051584905090E0A29D1D19921890035
:105278007A4DD800535A2B4003E0784B505A1840C7
:10528800502303435352A568A98F00291BD1280036
:1052980008F021F8E06808F08EFD6069FFF742FD2C
:1052A8002000FFF725FF5BE750584005000E05D0AA
:1052B80051584905090E0D29AAD1D7E7674B505A0D
:1052C80018406823DDE72000FFF7A0FDC4239B00FA
:1052D800E850E5E70123437142E798239B00C35850
:1052E8009B0700D43CE7012107F0F5FFA1688B8FED
:1052F800FF2B00D134E7080000254330CA8FFF3068
:1053080042310AF0F2FAA3681FA9DA8F0FA89B1896
:105318004333FF331D70A26814234332FF3200F079
:105328001BFC0F99142900D91AE7A8228B009B1897
:105338000AAA9B18543B1D60A368DA8F9B18413357
:105348001B78484AD35CA94203D01B0759D40129CA
:1053580056D100230E930293A82200270E9B3E00ED
:105368009B009B180AAA9B18543B1B6818000493BF
:1053780007F08AFF089705900397310002981AAA48
:1053880000F0C8FC051E48D1A668012F6CD1A822E0
:105398000E9B9B009B180AAA9B18543B186807F0A1
:1053A80073FF3200050003990298083200F0B2FC3E
:1053B8000668300007F068FF854205D0401B82B2BE
:1053C8007119200008F0F8FAA068264AC38FC3189C
:1053D80042331B78D25C0823110019401A4238D195
:1053E80098239B00C358DB072ED507F083FF2021A5
:1053F800200000F0EFFE0121A06807F07BFFAFE678
:105408000139002010AB009301900EAB1FAA08F0E1
:10541800F5F8029000289FD1A2E62D68059A280089
:1054280004990AF09FF800280CD12800FDF733F9F9
:10543800089B834200D203009BB20893002F00D13F
:1054480003960137013698E72021200000F0C2FEBC
:1054580086E60121200008F09DF981E607F8FFFFA4
:10546800A0300110A1300110012F00D878E6A82241
:105478000E9B9B009B180AAA9B18543B1B6818009C
:10548800069307F001FF039B0B903586079705935A
:10549800A26805990298083200F03CFC059B066852
:1054A80001330593069B002B08D0002E06D0190067
:1054B80030000B9A0AF056F80028E9D1A368049343
:1054C800002E51D11E86079B013B0793002BDFD18D
:1054D8006069FFF727FC200000F0B0FEA8220E9BB1
:1054E8009B009B180AAA9B18543B186807F0CCFE2F
:1054F800039B0399013315AA06000298049300F050
:1055080009FC0500A06829684330FF22FF300AF033
:105518003AF82B68A94D0393049B04990133029828
:105528001AAA059300F0F6FB002850D00023A268C1
:1055380000684332FF32D15C8C46C15C614505D1BD
:10554800002903D09D4901338B42F4D1002E01D0AC
:10555800B34206DB013F9D4200DD1D00ADB2012FC5
:1055680035D0059B0493D7E7954B1800099307F0AE
:105578008BFE089BC518049BADB25B8D2900181AD9
:10558800FAF77CFE83B230000A9307F07DFE049B95
:105598002D1A188E049A431C0A991386FAF764FE8A
:1055A80089B2ADB200290BD12000864A099B00962A
:1055B800063108F0C5F92900200000F0A9FC82E7AF
:1055C800330006212000804A08F0BAF9F3E7002DDD
:1055D80000D1C5E5039BAA1B200092B2991908F0D7
:1055E800EBF9BDE598239B00C3589B0700D4B7E5AA
:1055F800012107F070FE200008F0FCF9B0E59821C1
:1056080089005058800700D4AAE5581E162800D9EA
:10561800A6E5FAF7D9FDBA0017001B001EFEB40074
:105628002B00A5FDA5FDA5FDA5FD2F003300A5FDBB
:105638004800A5FD4D00A5FDA5FDA5FDA5FD4F0054
:10564800A5FD6500200008F0DAF889E5200008F0DB
:10565800CDF8200008F055F8002802D16069FFF75E
:1056680061FB0121A06807F036FE19E6200008F06A
:10567800D0F875E5200008F0D6F871E553589B0678
:1056880003D55249606907F008FE9823A2689B0079
:10569800D3589B0603D54E49606907F0FEFD2000EC
:1056A80000F0CCFD5CE500212000FFF755FB57E535
:1056B8000121F9E7200008F091F8200007F0BCFD6F
:1056C8000121A06807F007FE9823A2689B00D35821
:1056D8009B0600D444E53F49606907F0DEFD3FE5DD
:1056E800200000F0E1FC0121A06807F0F4FD37E597
:1056F8005B2B02D1593B537132E5982189005258EE
:10570800920706D5622B08D101214942200000F0FA
:1057180015FC0022A3685A7122E5662BF9D10121F4
:10572800F4E7002151719821A26889005058800738
:1057380000D415E5313B18001B2B00D910E5FAF70A
:1057480043FD2200280031001C000FFD0FFD0FFD56
:105758000FFD0FFD0FFD0FFD0FFD0FFD0FFD0FFDE1
:105768000FFDB7FFB2FF95FF81FF0FFD1E000FFD74
:1057780024000FFD0FFD0FFD2A00032353712000A5
:1057880008F034F8ECE403235371200008F026F8FD
:10579800E6E403235371A06843580121DB07DB0FBC
:1057A80059402AE603235371A3685B589B0700D42A
:1057B800D6E44EE500239EE75671D1E4FFFF0000D2
:1057C800890B01107F1701105213011045FC0010BE
:1057D8004AFC001040FC0010F0B51F00C323040071
:1057E80080689B00C5588BB008910992002D00D0A5
:1057F8006CE0C522290092000AF093F8A368226899
:105808001A60E06808F07EFBBE23A0689B00C01801
:1058180009F040FC9A23A0682E019B00F618801915
:1058280009F053FE1422AA216A43A068890052187D
:105838008319012180180135002209F01DFE042D6D
:10584800E8D10022A36902211A609923A0689B006D
:10585800C01807F0FAFC5022A3685A85A368383AA2
:105868001A85A668306807F00FFD98222C3630702C
:10587800099BA168AB4392008B506068154A036886
:1058880008991D682300A847051E1CD10122A3689A
:105898001A71A06AE16A00220023069207930E2378
:1058A80080220D4E0393109B0495029301973300B9
:1058B8000094120104F0C0F8C323A2689B00D050E2
:1058C800616A03F0F7FF28000BB0F0BD78256D4240
:1058D800F9E7C046C1D200103D59001010B50400C8
:1058E80080680379012B1FD1BE239B00C0180122B9
:1058F8005242D31707F0DCFC2000082100F096FB89
:10590800206807F0C1FC002803D00949606907F046
:10591800C4FC2000FFF7ECFBBE23A0689B00C01866
:1059280007F0F9FC002010BD86204042FBE7C04686
:1059380017110110F8B5040040680E000368002133
:105948009B681500984700282CD1002E04D02A0007
:105958002100E06908F028F92000FFF7BFFF0028C0
:1059680020D101267642F717AA23A0689B00C01809
:10597800032132003B0004F0BBFF051EA06812D0D3
:10598800BE26B60001225242D317801907F090FCB8
:1059980020002B000121154A07F0D2FFA0688019CA
:1059A80007F0B9FCF8BDBE239B00C01832003B00CD
:1059B80007F07EFC022120000D4A07F04EFC29006A
:1059C80020000C4A07F049FC200001210A4A07F090
:1059D80044FC606803685B69002B00D09847BE23CD
:1059E800A0689B00C01807F096FCBDE7851701105A
:1059F800D14C00104951001027D3001010B50400F5
:105A080008210C4A07F0FBFC200008210A4A07F08D
:105A1800F6FC20000821094A07F0F1FC20000821C3
:105A2800074A07F0ECFC20000021064A00F098FC29
:105A3800002010BD9C170110DA1701103918011049
:105A48008D18011027190110F8B51E0017000B005A
:105A5800304A0821040007F0D2FC002E41D008216A
:105A680020003B782C4A07F0CAFC01256B0704D1BB
:105A780008212000294A07F0C2FCAE4237D9082184
:105A880020007B5D244A07F0BAFC0135102DEDD1CA
:105A9800002508212000224A07F0B1FC2B00AE4265
:105AA80008D1082120001D4A07F0A9FC01352B0068
:105AB800AE4222D96821FB5C1A4AD25C8A4300D1E3
:105AC8002E2308212000184A07F099FC0135102DD3
